:020000040800F2
:10000000F00A00209D010008BB2D000851260008C1
:10001000B92D00081D080008633B0008000000001F
:10002000000000000000000000000000B5310008E2
:10003000DD0800080000000029310008B93100087F
:10004000B7010008B7010008B7010008B7010008B0
:10005000B7010008B7010008B7010008B7010008A0
:10006000B7010008B7010008B7010008210800081F
:10007000B7010008B7010008B7010008B701000880
:10008000B7010008B7010008B7010008B701000870
:10009000B7010008B7010008B7010008B701000860
:1000A000B7010008B7010008B7010008B701000850
:1000B00075320008813200088D320008B70100084F
:1000C000B7010008B7010008B7010008B701000830
:1000D000B7010008B7010008B7010008B701000820
:1000E000B7010008B7010008B7010008B701000810
:1000F000B7010008B7010008B70100082D08000883
:10010000B7010008B701000899320008B7010008DC
:10011000B701000879350008B7010008B7010008E9
:10012000B7010008B7010008B7010008B7010008CF
:10013000B7010008B7010008B7010008B7010008BF
:10014000B7010008B7010008B7010008B7010008AF
:10015000B7010008B7010008B7010008B70100089F
:10016000B7010008B7010008B7010008B70100088F
:10017000B7010008B7010008B7010008000000003F
:10018000B7010008B7010008DFF80CD000F034FB1D
:10019000004800475D440008F00A002006488047F8
:1001A00006480047FEE7FEE7FEE7FEE7FEE7FEE75C
:1001B000FEE7FEE7FEE7FEE7593200088901000886
:1001C0002DE9F05F0546002092469B46884606468C
:1001D000814640241BE0284641464746224600F01F
:1001E0003CFA53465A46C01A914110D3114618465C
:1001F000224600F023FA2D1A67EB01084F462246EB
:100200000120002100F01AFA17EB00094E41201ED0
:10021000A4F10104DFDC484631462A464346BDE8E6
:10022000F09FD2B201E000F8012B491EFBD27047CB
:100230000022F6E710B513460A4604461946FFF7B2
:10024000F0FF204610BD30B504460020034600E014
:100250005B1C934203D2E05CCD5C401BF8D030BD08
:100260002DE9FE4F804681EA0300C00F0C46009046
:1002700021F0004123F00045B8EB0200A94105D26E
:100280004046214690461C460B46024623F000405D
:10029000104347D0270DC7F30A00C3F30A51029059
:1002A000401A019040286BDAC3F3130040F4801B1E
:1002B0000098924620B10023D2EB030A63EB0B0BAC
:1002C00001985946C0F14002504600F0B7F9064681
:1002D0000D4650465946019A00F0CFF910EB080040
:1002E0006141002487EA115284EAE7731A4340D03F
:1002F000009A62B3019A012A4FEA075215DC001BEB
:1003000061EB02014FF0004202EA0752CDE90042E0
:10031000001C41F5801132462B4600F006FA03B06E
:10032000BDE8F08F40462146F9E7001B61EB020172
:10033000001C41F5801300185B412018A2F500173E
:1003400047EB030140EAD570B6196D4111E06D0825
:100350004FEA360645EAC0754FEA0752001B61EBCB
:100360000201001C41F5801149084FEA30000019D4
:10037000514132462B4603B0BDE8F04F00F0C6B9FC
:100380000098012240000023D0EB020263EBE073EF
:10039000009821464FEAE074B8EB000061EB0401DD
:1003A000E9E783F000435BE781F0004158E72DE97E
:1003B000FE4F81EA030404F0004421F00041009460
:1003C0004FF0000B23F0004350EA01045ED052EAE4
:1003D00003045BD0C3F30A54C1F30A552C44A4F2BE
:1003E000F3340194A0FB0254C1F3130141F48011D2
:1003F000C3F3130343F4801301FB024400FB034ED9
:10040000840A970A44EA815447EA8357A4FB0768A1
:1004100002958D0A05FB07854FEA932C04FB0C54CB
:100420002705029D4FEA065847EA1637B5EB08053F
:100430006EEB070C870E920E47EA811742EA831291
:10044000A7FB0201B6EB0B0164EB00042B0D43EAA2
:100450000C335E1844EB1C50DA465146E7FB0201B0
:10046000C5F313044FEA0B3343EA14534FEA043243
:10047000019C43EA0603A4F10C040294009CCDE91C
:1004800000B400F052F903B0BDE8F08F002001463F
:10049000F9E72DE9F04D81EA030404F0004B21F067
:1004A000004514464FF0000A23F0004150EA0502CF
:1004B00020D054EA01021DD0C5F30A570246C5F305
:1004C0001303C1F31300C1F30A5640F4801543F43B
:1004D0008013A7EB0608101BD64608F2FD3873EB15
:1004E000050002D308F1010801E092185B41B8F160
:1004F000000F03DA00200146BDE8F08D00204FF424
:100500008011064684460EE0171B73EB050705D3E2
:10051000121B63EB050306434CEA010C49084FEA42
:10052000300092185B4150EA0107EDD152EA030016
:1005300012D082EA040083EA0501084305D0101BAB
:10054000AB4106D20122002306E000224FF0004317
:1005500002E06FF0010253101AEB06004CEB085159
:1005600010EB0A0041EB0B01BDE8F04D00F0CEB8F6
:100570000EB5C10F80EAE0700844CA07002140F2BE
:1005800033438DE80E000A460B4600F0CEF803B068
:1005900000BD0EB540F2334102910021CDE90011BA
:1005A0000A460B4600F0C1F803B000BDC1F30A5281
:1005B00010B5C1F3130140F2FF3341F480119A42A8
:1005C00001DA002010BD40F233439A42A2F23342D6
:1005D00003DC524200F041F810BD904010BD00F025
:1005E000004230F000400AD0C10D01F56071C0F347
:1005F000160042EA0151C20840071143704700202B
:100600000146704701F0004330B421F0004150EA48
:10061000010206D00A0DA2F56072C1F31301002A8F
:1006200002DC30BC00207047440F44EAC104C10022
:10063000E01830BC00EBC25000F031B8202A04DBD7
:10064000203A00FA02F1002070479140C2F12003E5
:1006500020FA03F3194390407047202A04DB203A24
:1006600021FA02F00021704721FA02F3D040C2F1D2
:1006700020029140084319467047202A06DBCB1719
:10068000203A41FA02F043EAE07306E041FA02F34D
:10069000D040C2F12002914008431946704700291A
:1006A000A8BF7047401C490008BF20F001007047F8
:1006B00010B4B0FA80FC00FA0CF050EA010404BF58
:1006C00010BC704749B1CCF1200421FA04F411FAAE
:1006D0000CF118BF012121430843A3EB0C01CB1DF2
:1006E0004FEA00614FEA102042BF002010BC704763
:1006F00000EBC35010440029A4BF10BC7047401C3D
:10070000490008BF20F0010010BC704710B5141E4E
:1007100073F1000408DA401C41F1000192185B41BA
:100720001A4301D120F0010010BD2DE9F04D924691
:100730009B4611B1B1FA81F202E0B0FA80F22032A8
:100740009046FFF77BFF04460F4640EA0A0041EA65
:100750000B0153465A46084313D0114653EA010091
:1007600019D0C8F140025046FFF777FF05460E4604
:10077000504659464246FFF761FF084305D0012025
:1007800004E020463946BDE8F08D0020054346EAE6
:10079000E0762C4337430A986305E40AA0EB08008F
:1007A0000022FD0A44EA47540A3002D500200146DF
:1007B000E9E7010510196941DDE9084500196941BA
:1007C000BDE8F04DA2E7000030B5041E71F1000451
:1007D00004DB4FF00044404264EB0101141E73F14E
:1007E000000405DB1C464FF00043524263EB040358
:1007F000994208BF904230BD064C074D06E0E068C4
:1008000040F0010394E8070098471034AC42F6D357
:10081000FFF7BEFCE848000808490008FEE70000B2
:10082000014800F06FB8000030040020014800F0DB
:1008300069B800009004002001681823CAB2103A79
:10084000B2FBF3F2054B6FF30901032A9B5CC3650E
:1008500000D9091D8165084670470000C848000896
:1008600010B5014600208B698A6A4FF0C07453B1FD
:10087000B3F5005F15D072B1012A0CD0022A0AD05C
:10088000032A09D104E01AB1012A06D0022A03D1B1
:10089000C96AC90100D5012010BDC96AA142FAD0B8
:1008A00010BD002AF7D0012AF2D0022AF3D0032A81
:1008B000F3D010BD30B50468256825F48025256087
:1008C000046863608368402B036803D09960006804
:1008D000C26030BD9A600068C16030BD704770472B
:1008E00090F83510022903D080214165012070471E
:1008F000052180F835100068016821F001010160D0
:10090000002070472DE9F84304464FF00009CDF868
:10091000009063484FF41651A56D0068B0FBF1F7E5
:100920002E6894F85C10082000FA01F131420FD0D3
:1009300021680A6852070BD50A6822F004020A608F
:1009400094F85C108840A860606D40F0010060651C
:1009500094F85C104FF0010808FA01F0304208D01A
:1009600021684969090604D5A860606D40F002005D
:10097000606594F85C1004208840304208D02168FB
:100980000968890704D5A860606D40F004006065BF
:1009900094F85C1010208840304218D02168096813
:1009A000090714D5A86020680168490304D50068C8
:1009B000000308D5A16C07E00168C90503D40168EC
:1009C00021F008010160216C09B12046884794F8A4
:1009D0005C1020208840304231D021680968C90667
:1009E0002DD5A86094F8350005282068016806D048
:1009F000490347D5006800031DD4616C1CE021F059
:100A0000160101602068416921F080014161206C7C
:100A100008B9A06C20B12068016821F008010160CC
:100A200094F85C103F208840A86084F8349084F8E3
:100A30003580216D1FE0E16B09B120468847606D6C
:100A400000282BD0606DC00714D0052084F8350035
:100A50002068016821F0010101600098401C0090AD
:100A6000B84203D820680068C007F6D184F83490F3
:100A700084F83580E16C002910D001B02046BDE833
:100A8000F04308470168C905D5D4016821F0100179
:100A9000016084F8349084F83580CCE7BDE8F883B1
:100AA000E00000202DE9F041044600F091F90646EF
:100AB0005CB1002584F83450022084F835002068A9
:100AC000016821F0010101600DE00120BDE8F08125
:100AD00000F07EF9801B052805D9202060650320E1
:100AE00084F83500F2E720680068C007F0D122687A
:100AF000116820480140D4E901031843D4E90336C2
:100B00003343184363691843A3691843E3691843DF
:100B1000236A18430843616A042903D1D4E90B13FB
:100B200019430843106020684069666A20F0070195
:100B300030460E43012704280CD1A06A0643E06A20
:100B400040B12046FFF78CFE20B14020606584F85C
:100B50003570BAE7206846612046FFF76DFE94F8CD
:100B60005C203F2191408160656584F835700020EC
:100B7000ACE700003F8010F02DE9F0410446866D9F
:100B800090F83400002501280DD0012084F83400AD
:100B900094F835700020012F07D084F83400022526
:100BA0002846BDE8F0810220FBE7022784F8357073
:100BB00060652046FFF77EFE94F85C103F20884079
:100BC000B0602068016841F016010160206C20B11E
:100BD0002068016841F0080101602068016841F067
:100BE00001010160DCE7000070B5044600F0F0F898
:100BF0000546601C02D004480078044400F0E8F880
:100C0000401BA042FAD370BDD40000202DE9F84F5C
:100C100000224FF0010803254FF00F0E0B6808FA71
:100C200002F42340A3426ED14E68012E05D0022E5D
:100C300003D0112E01D0122E12D186684FEA420C39
:100C400005FA0CF7BE43CF6807FA0CF73743876005
:100C50004668A6430C79C4F30014944034434460BE
:100C6000C668570005FA07FC8C6826EA0C06BC40EB
:100C70003443C4604C68022C01D0122C13D1D40828
:100C800000EB8404A346D4F8209054074FEAD46ABA
:100C90000EFA0AF629EA06090E6906FA0AF646EA83
:100CA0000906CBF8206006680C7926EA0C0604F0E9
:100CB0000304BC40344304604C68E40065D5364C02
:100CC000266846F480462660246822F0030604F471
:100CD00080440094314C3444A446D4F80848960724
:100CE000370F0EFA07F6B4432D4EB04201D100265D
:100CF00024E02C4EB04201D101261FE02A4EB04222
:100D000002D102261AE040E0284EB04201D103266B
:100D100014E0274EB04201D104260FE0254EB04228
:100D200001D105260AE0244EB04201D1062605E095
:100D3000224EB04201D1072600E00826BE402643DD
:100D4000CCF808681E4E34684F689C43FF0300D5FA
:100D50001C4334601A4C241D26684F689E43BF0311
:100D600000D51E432660164E083634684F689C43F3
:100D7000FF0200D51C433460114E0C3634684F68B6
:100D80009C43BF0200D51C433460521C102AFFF460
:100D900045AFBDE8F88F0000443802400030014004
:100DA000000002400004024000080240000C024023
:100DB000001002400014024000180240001C0240D3
:100DC000003C01400AB1816170470904FBE7000063
:100DD0000148806870470000D400002070B504000E
:100DE00025D094F83D00002520B984F83C502046D9
:100DF00000F0E2FA242084F83D002068016821F028
:100E0000010101602068016841F40041016020682F
:100E1000016821F40041016000F036FC4D4A616830
:100E2000914201D84C4900E04C49884201D201204E
:100E300070BD4B492368B0FBF1F15E6826F03F06B8
:100E40000E435E606368934206D94FF4967359432C
:100E50004FF47A73B1FBF3F12368491C1E6A26F044
:100E60003F06314319626168914210D84900401E23
:100E7000B0FBF1F2521CC2F30B02042A01D204208F
:100E800022E0B0FBF1F0401CC0F30B001CE0A268B4
:100E9000F2B301EBC10303EB0116431EB3FBF6F300
:100EA0005B1C43F480431B0549D092B301EBC102A4
:100EB00002EB0111401EB0FBF1F0401CC0F30B002F
:100EC00040F4804040F400402168CA694CF6FF734A
:100ED0009A431043C861D4E90710014320680268AF
:100EE00022F0C00211430160D4E9030101432068EC
:100EF000826848F2FF339A4311438160D4E90501C7
:100F000008432168CA6822F0FF021043C86001E06C
:100F10000EE016E02068016841F0010101602564DF
:100F2000202084F83D00256384F83E50002070BDE9
:100F300001EB4106431EB3FBF6F35B1CB3E7012054
:100F4000C2E701EB4101401EB0FBF1F0401CC0F3D1
:100F50000B00B7E7A086010080841E0000093D0059
:100F600040420F002DE9F84F1F4690468A4604463E
:100F7000DDF82890FFF72CFF054694F83D00202867
:100F80007FD11923012240492046009501F0BEFC83
:100F9000002876D194F83C00012872D0012084F812
:100FA0003C0020680168C90703D1016841F00101D4
:100FB00001602068016821F400610160212084F84B
:100FC0003D00102084F83E0000262664C4F82480EA
:100FD0006785608D20852D48E0622B464A46514644
:100FE000204601F04DFB90B920684169806900906E
:100FF00036E02A464946204601F03AFD50B1206CC1
:10100000042804D12068016841F4007101600120C6
:10101000BDE8F88F606A216800780861606A401C4A
:101020006062618D491E6185218D491E89B22185CD
:1010300022685369DB435B070BD451B10078106120
:10104000606A401C6062608D401E6085208D401E7D
:1010500020852A464946204601F032FC0028CED1A0
:10106000208D0028C5D154F83D0B016841F4007172
:101070000160202004F81E09E67766770020C7E7A4
:10108000FFE70220C4E70000020010000000FFFF9D
:101090002DE9FF4F83B09A46DDE911979346044648
:1010A000DDF84080FFF794FE054694F83D002028C7
:1010B00070D11923012271492046009501F026FCC8
:1010C0000028F5D194F83C00012863D0012084F871
:1010D0003C0020680168C90703D1016841F00101A3
:1010E00001602068016821F400610160222084F819
:1010F0003D00402084F83E0000262664C4F8248089
:10110000A4F82A90608D20855D48E062CDE90075E5
:1011100053465A462046049901F000FB00287CD132
:10112000208DD0B1012821D00228206824D0416927
:1011300080690090208D032869D801282BD051495F
:1011400002283B464FF00002009559D088462046C1
:1011500001F0DCFB002860D13CE020684169816936
:101160000091016841F40071016077E02068016836
:1011700021F480610160F0E7016821F48061016081
:101180002068016841F4006101602068416980695C
:10119000009063E06FE02A463946204601F035FCB6
:1011A00098BB20680069616A08704EE02068016899
:1011B00041F40071016020680069616A0870606A2A
:1011C000401C6062218D491E2185618D491E61850B
:1011D000216838E02068016821F48061016020689E
:1011E0000069616A0870606A401C6062208D401E60
:1011F0002085608D401E60853B460022414600955B
:10120000204601F083FB00B9D0E706E0FFE72A465D
:101210003946204601F0F9FB18B1012007B0BDE8BE
:10122000F08F20680069616A0870606A401C606223
:10123000218D491E2185618D491E618521684A697C
:10124000D24352070AD409690170606A401C606287
:10125000208D401E2085608D401E6085208D0028D9
:101260007FF468AF202084F83D0084F83E6084F865
:101270003C600020D2E70220D0E70000020010000E
:101280000000FFFF040001002DE9FF4F83B09A46E4
:10129000DDE9119793460446DDF84080FFF798FD9D
:1012A000054694F83D0020287FD1192301224049AA
:1012B0002046009501F02AFB002876D194F83C00E6
:1012C000012872D0012084F83C0020680168C90719
:1012D00003D1016841F0010101602068016821F437
:1012E00000610160212084F83D00402084F83E0028
:1012F00000262664C4F82480A4F82A90608D2085F6
:101300002C48E062CDE9007553465A4620460499C0
:1013100001F082FA70B930E02A463946204601F0E1
:10132000A7FB58B1206C042804D12068016841F45F
:1013300000710160012007B0BDE8F08F606A21688C
:1013400000780861606A401C6062218D491E89B284
:101350002185628D521E628522685369DB435B07DB
:101360000BD469B100781061606A401C6062208D06
:10137000401E2085608D401E6085208D0028CBD1C9
:101380002A463946204601F09BFA0028CAD154F873
:101390003D0B016841F400710160202004F81E0932
:1013A000E67766770020C6E7FFE70220C3E7000084
:1013B000020010000000FFFF10B586B004461421A3
:1013C0006846FEF735FF13492068884220D112484D
:1013D000016841F0020101600068694600F0020006
:1013E0000590C0200090122001900120029003205F
:1013F0000390042004900948FFF708FC06481030C9
:10140000016841F400110160006800F400100590CB
:1014100006B010BD005400403038024000040240C5
:10142000024881680278114481607047D40000202E
:101430000B4810B5016841F400710160016841F486
:1014400080610160016841F480710160032000F057
:101450006FF8002000F006F800F024F8002010BD1E
:10146000003C024070B50D4D04464FF47A71287867
:10147000B1FBF0F00A490968B1FBF0F000F002FBA3
:1014800048B9102C07D200222146501E00F030F837
:1014900000206C6070BD012070BD0000D4000020F1
:1014A000E00000200A4808B5016841F4804101606D
:1014B000006800F4804000900548001F016841F07A
:1014C00080510160006800F08050009008BD00006D
:1014D00044380240002809DB00F01F02012191403E
:1014E0004009800000F1E020C0F8001170470000C2
:1014F000F0B40E4B1B680C46C3F30223C3F107057F
:10150000042D00D90425191D072901D2002300E06C
:10151000DB1E012606FA05F1491E214099409E4036
:10152000761E16403143F0BC02F01CBB0CED00E00F
:10153000064900F0070208684FF6FF03184040EA2A
:101540000220034A10430860704700000CED00E0E1
:101550000000FA052DE9F0470E46050065D0DFF8DA
:101560001481D8F80000F7B200F00F00B04207D2A3
:1015700088F80070D8F8000000F00F00B04254D195
:1015800028683D4C810712D5400703D5206840F4F8
:10159000E05020602878000703D5206840F46040C0
:1015A00020602068A96820F0F000084320602878B7
:1015B000C0072DD0304968680839012812D00228A8
:1015C00013D0032811D00968890700292DDA216872
:1015D00021F0030101432160FFF7FAFB814641F24C
:1015E000883A0EE009688903EFE709688901ECE7AA
:1015F000FFF7EEFBA0EB0901514502D90320BDE83E
:10160000F0872068696800F00C00B0EB810FEFD123
:10161000D8F80010404601F00F01B14207D9077019
:10162000006800F00F00B04201D00120E7E7287801
:10163000400705D52068E96820F4E05008432060A1
:101640002878000706D52068296920F4604040EA20
:10165000C100206000F038F82168084AC1F3031186
:10166000515CC8400649086006480068FFF7FAFE6A
:101670000020C4E7003C024008380240D04800087F
:10168000E0000020D80000200448054900680968EF
:10169000044AC1F38221515CC8407047E000002039
:1016A00008380240E0480008044805490068096815
:1016B000044AC1F34231515CC8407047E000002049
:1016C00008380240E0480008154810B5006810F0DE
:1016D0000C02144813D04110042A0FD0082A0ED14E
:1016E0000F4C241F2268236802F03F025B0207D5DB
:1016F0002068C0F38810A0FB010106E0084610BD79
:101700002168C1F38811A1FB00010023FEF758FDF9
:101710002168C1F30141491C4900B0FBF1F010BD43
:10172000083802400024F4002DE9F84F04006ED080
:101730002078DFF83C93C007A9F104054AD009F1ED
:1017400004000168C1F38101012908D00068C0F3D9
:10175000810002280AD1D9F80000400206D5286885
:10176000800337D560680028E1D033E06068B0F5C9
:10177000803F10D0B0F5A02F286810D020F4803022
:101780002860286820F4802028606068A8B1FFF7EE
:101790001FFB06460DE0286840F48030F4E740F473
:1017A00080202860F7E700BFFFF712FB801B64284A
:1017B00073D828688003F7D50CE0FFF709FB0646CD
:1017C00005E000BFFFF704FB801B6428F0D8286801
:1017D0008003F7D42078DFF89C8280074FF0000A5E
:1017E0003ED5A348001D016811F00C0F08D0006819
:1017F000C0F3810002280BD1D9F80000400207D4C1
:101800002868800716D5E068012800D112E02BE196
:10181000E068B8B10120C8F80000FFF7D9FA064621
:1018200005E000BFFFF7D4FA801B0228C0D8286863
:101830008007F7D52868216920F0F80040EAC10048
:1018400028600DE0C8F800A0FFF7C2FA064604E0E1
:10185000FFF7BEFA801B02281FD828688007F7D43C
:101860002078000722D5824E83486169703671B1B5
:1018700001210160FFF7ACFA074604E0FFF7A8FA80
:10188000C01B022809D830688007F7D50EE0C0F8E1
:1018900000A0FFF79DFA074605E082E0FFF798FAFF
:1018A000C01B02287DD830688007F7D42078400715
:1018B00068D5DFF8BCB100270BF13C0BDBF800006A
:1018C000C0000BD4DBF8001041F08051CBF80010C1
:1018D000DBF80000012700F080500090674E306870
:1018E000C00510D4306840F480703060FFF770FAA3
:1018F000009005E0FFF76CFA0099401A022850D8D2
:101900003068C005F6D55A4EA0686C3601280FD055
:101910000528306810D020F001003060306820F0D9
:1019200004003060A068B8B1FFF752FA00900FE0F1
:10193000306840F00100F4E740F004003060F7E761
:10194000FFF746FA0099411A41F28830814266D881
:1019500030688007F4D50EE0FFF73AFA009007E010
:10196000FFF736FA0099411A41F28830814256D881
:1019700030688007F4D42FB1DBF8001021F08051DB
:10198000CBF80010A069C8B33949091D0968C1F333
:10199000810102294AD00228504607D0C8F86000C9
:1019A00000E03CE0FFF714FA04463BE04746C8F885
:1019B0006000FFF70DFA064605E000BFFFF708FAE2
:1019C000801B02282BD828688001F7D4D4E90701AE
:1019D0000843A16A2A4A490802EB0141626A41EAC6
:1019E0008211084394F82C1040EA0161C9F80010F4
:1019F00001203866FFF7ECF9044606E036E000BF48
:101A0000FFF7E6F9001B022809D828688001F7D5FE
:101A10002CE000BFFFF7DCF9001B022802D90320ED
:101A2000BDE8F88F28688001F4D41FE00128F7D0C2
:101A3000D9F80000E26900F48001914214D1226AD1
:101A400000F03F0191420FD147F6C071626A014038
:101A5000914209D1A26A00F44031914204D1E16A75
:101A600000F07060884201D00120D9E70020D7E75C
:101A70000438024000004742800E47420070004098
:101A80000000FFFF10B5401EB0F1807F01D30120A0
:101A900010BD4FF0E02460610F21601702F062F882
:101AA0000020A06107202061002010BD7047704712
:101AB00070B590F83C20012A32D0012480F83C40D7
:101AC000022280F83D2003685A689D6822F0700663
:101AD0000A6832435A60134B02689A4214D0B2F13A
:101AE000804F11D0104B9A420ED0104B9A420BD01F
:101AF0000F4B9A4208D00F4B9A4205D00E4B9A4298
:101B000002D00E4B9A4204D1496825F08003194354
:101B1000916080F83D40002180F83C10084670BD7F
:101B2000022070BD00000140000400400008004099
:101B3000000C00400004014000400140001800403B
:101B400010B5040003D094F83D0010B107E0012067
:101B500010BD002084F83C00204600F00DF8022063
:101B600084F83D00211D206801F09CFB012084F8D1
:101B70003D00002010BD000008B50068B0F1804FA6
:101B80000CD01049884208D10F48016841F48031D7
:101B90000160006800F48030009008BD0A48001F12
:101BA000016841F0010101600068002200F00100BD
:101BB000009011461C20FFF79BFCBDE808401C204C
:101BC000FFF788BC004001404438024070B504462D
:101BD00090F83C00012817D0012584F83C500220E1
:101BE00084F83D002068826822F0770222F47F4268
:101BF00082600868502830D00DDC20284DD005DCEC
:101C000098B310283BD148E0022070BD302844D062
:101C1000402834D139E0602828D0702806D0B0F5AB
:101C2000805F2CD0B0F5005F29D10AE0CB68D1E904
:101C30000121206801F0A7FB2068816841F077014D
:101C400009E0CB68D1E90121206801F09CFB206804
:101C5000816841F48041816011E0CA684968206868
:101C600001F066FC5021206807E016E0CA68496868
:101C7000206801F06EFC6021206801F08EFB84F882
:101C80003D50002084F83C0070BDCA684968206857
:101C900001F04EFC40212068EFE722680146104623
:101CA000EBE72DE9F0410D46040003D094F83D0028
:101CB00018B108E00120BDE8F081002084F83C0064
:101CC000204600F03BF8022084F83D00206881683F
:101CD00044F2070291438160211D206801F0E2FA7D
:101CE000226890689169166A2B68AF69034340F2D5
:101CF0000330814341EA0721A868EF6908434FF6A2
:101D0000FC418843E96840EA0720014328692F6ABB
:101D1000000140EA0730084369686D6926F0AA06A9
:101D200046EA0515294393602268906120680162A4
:101D3000012084F83D000020BDE70000F0B587B029
:101D4000044614216846FEF773FA494826680023C2
:101D500048490224012586421DD1464814300268B4
:101D600042F001020260006800F00100059008687E
:101D700040F0100008600868694600F01000059007
:101D80004FF420608DE83100CDE903353A48FEF785
:101D90003DFF07B0F0BD374A384F10323848BE42D9
:101DA0001ED1166846F002061660126802F00202A2
:101DB00005920A6842F001020A60096801F0010117
:101DC0000591C0218DE83200CDE903346946FEF764
:101DD0001DFF002211461D20FFF78AFB1D2022E077
:101DE000284FBE4222D1106840F0040010601068F5
:101DF00000F004000590086840F0080008600868DA
:101E0000694600F0080005904FF440508DE831001D
:101E1000CDE903341C48FEF7F9FE002211461E20CE
:101E2000FFF766FB1E20FFF755FBB2E7174FBE42D8
:101E3000AFD1166846F008061660126802F0080274
:101E400005920A6842F001020A60096801F0010186
:101E5000059103218DE83200CDE903346946FEF790
:101E6000D5FE002211463220FFF742FB3220DAE78E
:101E700000000140303802400010024000040040E1
:101E80000000024000080040000C0240000C00402E
:101E900010B50446006891B1042904D00122002144
:101EA00001F064FA206801225FF0040101F05EFA9B
:101EB0002068016841F001010160002010BD01228D
:101EC0000021F3E7704770B50446006801694FF0E0
:101ED0000005C943890715D4C168C943890711D4CE
:101EE000E91E016101202077206880698007204673
:101EF00002D0FFF7E7FF04E000F0D2F8204600F040
:101F000054F9257720680169C943490717D4C16886
:101F1000C943490713D46FF00401016102202077FF
:101F20002068806910F4407F204602D0FFF7CAFF86
:101F300004E000F0B5F8204600F037F92577206876
:101F40000169C943090716D4C168C943090712D4F6
:101F50006FF008010161042020772068C0698007C4
:101F6000204602D0FFF7AEFF04E000F099F82046CB
:101F700000F01BF9257720680169C943C90617D409
:101F8000C168C943C90613D46FF01001016108206C
:101F900020772068C06910F4407F204602D0FFF708
:101FA00091FF04E000F07CF8204600F0FEF8257771
:101FB00020680169C943C90708D1C168C943C90775
:101FC00004D1891E0161204600F012F920680169E0
:101FD000C943090609D4C168C943090605D46FF08D
:101FE000800101612046FFF761FD20680169C94356
:101FF000490609D4C168C943490605D46FF04001B8
:102000000161204600F03AF920680169C943890658
:102010000BD4C168C943890607D46FF02001016160
:102020002046BDE87040FFF742BD70BD70B586B078
:10203000044614216846FEF7FBF82068B0F1804F93
:1020400025D114480025016841F0010101600168B3
:1020500001F001010591016841F002010160006891
:10206000022400F0020005902C208DE831000126AA
:10207000CDE9034669460848FEF7C8FD08208DE80B
:102080003100CDE9034669460448FEF7BFFD06B0BE
:1020900070BD0000303802400000024000040240E1
:1020A000704770B5044690F83C000D4601280DD0ED
:1020B000012684F83C60022084F83D0042B1042AE5
:1020C00018D0082A2AD00C2A4DD139E0022070BD40
:1020D000206801F06BF92068816941F00801816195
:1020E0002068816921F004018161206881692A6981
:1020F000114311E0206801F089F92068816941F4F9
:10210000006181612068816921F4806181612068BA
:1021100081692A6941EA0221816124E0206801F095
:10212000ABF92068C16941F00801C1612068C1694B
:1021300021F00401C1612068C1692A69114311E0DD
:10214000206801F0CDF92068C16941F40061C161E6
:102150002068C16921F48061C1612068C1692A6970
:1021600041EA0221C16184F83D60002084F83C000E
:1021700070BD10B5040003D094F83D0010B107E025
:10218000012010BD002084F83C00204600F00CF82F
:10219000022084F83D00211D206801F083F8012011
:1021A00084F83D00002010BD7047704710B504460C
:1021B0000068012201F0DAF80B492068884202D059
:1021C0000A49884203D1416C41F4004141642068CE
:1021D000816801F00701062903D0016841F001017F
:1021E0000160002010BD000000000140000401401B
:1021F0002DE9F04100681E49884237D11D4E3068F4
:10220000406A1D49A6F58072888115686B6A01F1E4
:102210002402A6F1800793813B685C6A01F14803C0
:10222000A6F1400C9C81DCF80040D4F824E001F1D8
:102230006C04A4F80CE0B1F80EE08644A1F80EE0BE
:10224000D1890144D181D9890144D981E1890844E6
:10225000E081002068623168486239684862DCF8D1
:1022600000104862BDE8F04102F076B8BDE8F081A8
:1022700000400140440200203C00002070477047AD
:1022800070B5026804461068D168536910F00F0FEA
:1022900052D003F0010501F490762E435FD0C207BF
:1022A00005D0CA0503D5E26B42F00102E2634207A2
:1022B00005D5DA0703D0E26B42F00202E26382073F
:1022C00005D5DA0703D0E26B42F00402E2630207AD
:1022D00007D501F020022A4303D0E26B42F0080246
:1022E000E263E26B002A33D0800604D5880602D56B
:1022F000204601F093FA20684069E16BC0F380103A
:10230000090700D428B3204601F0A8F920684169E4
:1023100049061AD5416921F040014161606BA0B1C5
:102320001B490165606BFEF7DBFA002810D0606B7B
:10233000016DBDE870400847830610D58B060ED5A9
:102340002046BDE8704001F069BA2046FFF797FFCC
:1023500070BD2046FFF793FF0020E06370BD0306C9
:1023600006D50B0604D52046BDE8704001F0C8BB79
:102370004006F3D54806F1D5D168204621F040014A
:10238000D160202184F8391000F060F970BD0000A0
:102390008535000870B5040004D094F83900002594
:1023A00010B106E0012070BD84F83850204600F0DE
:1023B00023F8242084F839002068C16821F40051F2
:1023C000C160204601F008FB2068016921F49041BA
:1023D00001612068416921F02A0141612068C168DA
:1023E00041F40051C160E563202084F8390084F88D
:1023F0003A00002070BD00002DE9F04387B006468A
:1024000014216846FDF714FF37493068884267D1C8
:1024100036480025016841F480110160006800F42D
:102420008010059031481038016841F004010160C6
:10243000016801F004010591016841F008010160A3
:102440000068022400F0080005904FF48050012736
:102450004FF003084FF008098DE8910369462448BE
:10246000FEF7D4FB04208DE8910369462148FEF76E
:10247000CDFB224C20484FF48068C7052060C4E99A
:102480000175C4E9035865614FF40039A561C4E9D9
:10249000075920466562FEF705FB08B1FEF71FFAF3
:1024A0007463A6631448164CA830E4E80207402081
:1024B000A4E82101124844F81459A561C4E9075958
:1024C0006562FEF7EFFA08B1FEF709FA34630022FD
:1024D00011463520A663FFF70BF83520FEF7FAFF0B
:1024E00007B0BDE8F08300000050004040380240D3
:1024F00000080240000C024010600240300400203E
:1025000090040020F8B5044690F83A0020283CD109
:10251000C1B3BAB394F83800012836D0012084F84A
:102520003800A162A2850025E563222084F83A00E4
:10253000636B1748D863636B16481864636B16485F
:10254000D864606B134605650846666B21680246D1
:102550003046091DFEF710FB2068016841680091B4
:1025600084F83850C16841F48071C16020684169C5
:1025700041F0010141612068416941F04001416140
:102580000020F8BDFFE70120FBE70220F9E700008B
:10259000DF3500081B36000895350008084810B5DF
:1025A000406B0068016821F00101016004491D22AF
:1025B00040310348FFF7A6FF02490020488010BDC4
:1025C000C4020020000000207047000070B50446DF
:1025D00090F83900202830D169B362B394F83800FC
:1025E00001282AD0012084F838002162A284E284E4
:1025F0000025E563212084F83900236B1048D86357
:10260000236B10481864236B0F48D864206B134663
:1026100005652668206B321DFEF7AEFA21686FF063
:102620004000086084F838502068416941F080011A
:102630004161002070BD012070BD022070BD00000E
:102640002536000853360008953500087047704756
:10265000FEE701684A69D24352050FD46FF48062E5
:102660004A61002140F8301F2022427381730269C1
:1026700042F004020261017301207047002070479C
:10268000F8B50446C06A1E460D461746082807D00E
:10269000012805D010F5803F02D0206B122804D10C
:1026A0002068016841F480710160134600224FF0F8
:1026B00001112046009600F029F940B12068006819
:1026C000C00502D54FF4007020640320F8BD2069D6
:1026D000B0F5804F0ED00620216800EAD51040F0FA
:1026E000F000086133463A460B49204600F042F9B3
:1026F00078B902E005F0FE0000E0E8B22168086168
:10270000054933463A46891F204600F033F9002830
:10271000DCD00120F8BD0000080001002DE9F84FD1
:102720000446006889460B9D01689846174641F4A7
:10273000806101602068016841F48071016000954A
:102740004FF0011B0022594620460A9B00F0DEF89C
:102750004FF4007A40B120680068C00501D5C4F884
:1027600040A00320BDE8F88F216809F0FE00086151
:102770002B46284920460A9A00F0FCF8F0BB206856
:102780004169806900902A4620460A9900F070F954
:1027900040B1206C04283AD12068016841F40071EE
:1027A000016034E0FEB2B8F1010F09D02168380AA7
:1027B00008612A4620460A9900F05AF90028E8D113
:1027C000206806612A4620460A9900F051F900283F
:1027D000DFD12068016841F480710160009500221A
:1027E000594620460A9B00F091F80028B3D1216891
:1027F00009F0FF0040F00100086100E007E02B460F
:10280000044920460A9A00F0B5F80028AAD0012011
:10281000A8E70000020001002DE9F8430446006823
:102820000D46DDE9089701689846164641F4807127
:1028300001604B4600224FF001112046009700F046
:1028400065F848B120680068C00502D54FF40070F3
:1028500020640320BDE8F883216805F0FE000861CC
:102860003B464A461549204600F084F888B920685E
:102870004169806900903A464946204600F0F8F8E0
:1028800048B1206C042804D12068016841F400712B
:1028900001600120DEE7F5B2B8F1010F09D021682F
:1028A000300A08613A464946204600F0E1F800281F
:1028B000E7D1206805610020CCE70000020001009C
:1028C00070B516460D4604460DE02046FFF7C1FEE2
:1028D00008B1012070BD681C05D0FEF779FA801B95
:1028E000A84207D835B120684069C0434007ECD4FE
:1028F000002070BD002044F8300F20216173A073C8
:10290000216941F0200121612073E2E72DE9F047C0
:102910001E4690460D460446C1F30747DDF8209059
:1029200008E0701C06D0FEF753FAA0EB0900B04295
:102930000FD876B12068012F18D0806925EA0000F1
:102940000004000C14D000214145EAD00020BDE86D
:10295000F087002044F8300F20216173A0732169B3
:1029600041F02001216120730120F0E74069E5E793
:102970000121E9E72DE9F0479A4691460E460446C3
:1029800000254FF02008C1F3074725E02068406983
:10299000C043400514D42068016841F4007101600F
:1029A00021686FF480604861256384F83D8084F875
:1029B0003E50206C40F00400206484F83C501FE03E
:1029C000B9F1FF3F08D0FEF703FAA0EB0A01494531
:1029D0000CD8B9F1000F09D02068012F13D08069FD
:1029E00026EA00000004000C0BD0CFE744F8305F6B
:1029F00084F80D80A573206940F0200020612573C4
:102A00000120BDE8F0874069EAE72DE9F0410025A3
:102A100090460E460446202717E04069C043C00692
:102A20000CD454F8301B6FF01000486144F8105972
:102A30006777A577206A2062257717E0FEF7C8F947
:102A4000A0EB0800B04208D83EB120684169C943F4
:102A50004906E2D40020BDE8F08144F8305F677396
:102A6000A573206940F02000206125730120F2E762
:102A700070B516460D4604460DE02046FFF7E9FD09
:102A800008B1012070BD681C05D0FEF7A1F9801BBC
:102A9000A84207D835B120684069C0430006ECD48D
:102AA000002070BD002044F8300F20216173A07316
:102AB000216941F0200121612073E2E72DE9F04313
:102AC00087B014216846FDF7B3FB32480024016843
:102AD00041F004010160016801F004010591016801
:102AE00041F080010160016801F0800105910168F9
:102AF00041F001010160016801F0010105910168E7
:102B000041F010010160016801F0100105910168B8
:102B100041F008010160016801F0080105910168B8
:102B200041F0020101600068DFF86C8000F00200F3
:102B30004FF42A550590002229464046FEF742F9F7
:102B40000122960331464046FEF73CF9DFF84C90EF
:102B50007700002239464846FEF734F900950125F2
:102B6000CDE90154694640460394FEF74FF8CDE99C
:102B70000065CDE9025469464046FEF747F80097E4
:102B8000CDE90154694648460394FEF73FF807B083
:102B9000BDE8F083303802400008024000000240E7
:102BA00010B58CB024216846FDF742FB0024134881
:102BB000099411490A94C0E900144FF6FF71C0E965
:102BC00002410461446184610320009001AA022053
:102BD000012182E81300CDE90440CDE906146946DD
:102BE00006480894FFF75DF8099409A903480A9478
:102BF000FEF75EFF0CB010BD000001404401002054
:102C000010B58EB000240794089409940A940B948C
:102C10001C2168460C94FDF70BFB1E484FF08041C9
:102C200001600121C0E9011440F60F61C0E90314FD
:102C30008461FEF785FF4FF48050079007A915487F
:102C4000FEF7C4FF1348FFF794FA0B940BA9114841
:102C50000C94FEF72DFF6020CDE9000402940022C1
:102C600069460C480494FFF71CFA04226946094897
:102C7000FFF717FA082269460648FFF712FA0C22F6
:102C800069460448FFF70DFA0248FFF7CFF90EB086
:102C900010BD00008401002010B58CB024216846CE
:102CA000FDF7C6FA00241348099411490A94C0E9B3
:102CB00000144FF6FF71C0E90241046184610320F2
:102CC000009001AA0220012182E81300CDE904400E
:102CD000CDE90614694607480894FEF7E2FF099417
:102CE00009A904480A94FEF7E3FE0CB010BD0000E9
:102CF00000040040C401002010B58CB024216846B7
:102D0000FDF796FA00241348099411490A94C0E982
:102D100000144FF6FF71C0E9024104618461032091
:102D2000009001AA0220012182E81300CDE90440AD
:102D3000CDE90614694607480894FEF7B2FF0994E6
:102D400009A904480A94FEF7B3FE0CB010BD0000B8
:102D5000000800400402002010B58CB02421684611
:102D6000FDF766FA00241348099411490A94C0E952
:102D700000144FF6FF71C0E9024104618461032031
:102D8000009001AA0220012182E81300CDE904404D
:102D9000CDE90614694607480894FEF782FF0994B6
:102DA00009A904480A94FEF783FE0CB010BD000088
:102DB000000C004044020020FEE770470246052157
:102DC000002000F017B80000064910B5086000F0B8
:102DD000B1F8302000F046F80120FFF7EFFF0020A7
:102DE00010BD0000E400002002460721002000F092
:102DF00001B800002DE9FF4715000E46824600D0BD
:102E0000012501240DF10C090A274846DFF85080FE
:102E10008DE89100234652468021D8F80000FEF745
:102E200037F9C8B904FA06F040F080019DF80C00AB
:102E3000CDF80090884305F00101B14001438DF8C1
:102E40000C10CDE90147012352468021D8F800003B
:102E5000FEF71AFA002800D0012004B0BDE8F08780
:102E6000E40000201FB540F2F651884201D3032050
:102E70002DE0182801D8FF2029E0FDF78AFB9FEDFF
:102E8000211B53EC112BFDF792FA41EC100B53EC84
:102E9000102B9FED1E0B51EC100BFDF7FAFA9FED76
:102EA0001D1B53EC112BFDF77CFAFDF7ABFBFDF777
:102EB00096FB9FED1A1B53EC112BFDF7D1F941EC5A
:102EC000100B00F061FE51EC100BFDF76FFB8DF85D
:102ED0000C00012000F028F801210A2203A88DE847
:102EE000070010480B46FE2280210068FEF7CCF94F
:102EF000002000F019F80120FFF776FF04B0002051
:102F000010BD0000000000000000B0400000000004
:102F100084D77741000000000000F03F000000006F
:102F20000000E03FE4000020024604210020FFF7FB
:102F300061BF00001CB506208DF804000A20009037
:102F40000548012301AA00210068FEF70BF80028BC
:102F500000D001201CBD0000E400002090F83910D2
:102F6000B9B190ED0D0A90ED001AD0ED070A70EEA0
:102F7000411A90ED090A00EEA10A80ED090AD0ED90
:102F80000B0AB4EEE00AF1EE10FA04D2B0EE600AD9
:102F90000AE00020704790ED0C2AB4EEC20AF1EE70
:102FA00010FA01DDB0EE420A80ED090AD0ED062AE2
:102FB00090ED012A02EEA10A31EE422AD0ED081A64
:102FC00001EEC20A80ED020AB4EEE00AF1EE10FA58
:102FD00006D3D0ED0C0AB4EEE00AF1EE10FA01DDF2
:102FE000B0EE600A80ED020A80ED011A0120704700
:102FF00000B5B0EE404A9FED190A80F8382080F8FD
:10300000391080ED090AF5EEC01AB0EE413AF0EE43
:10301000603A80ED000A80ED010AF1EE10FA80EDD1
:10302000020A034680ED0D0A02DDC3ED0A1A03E031
:10303000B7EE000A83ED0A0AF0EE620AB0EE420A29
:1030400000F00EF8B0EE431AF0EE630AB0EE440A58
:1030500018465DF804EB00F037B8000000000000EF
:10306000B4EEE00AF1EE10FA2DDA80ED0B0AC0EDB5
:103070000C0A90F83910012925D190ED021AB4EE0E
:10308000C01AF1EE10FA02D2B0EE401A06E0B4EE29
:10309000E01AF1EE10FA01DDB0EE601A80ED021ACE
:1030A00090ED091AB4EEC01AF1EE10FA09D3B4EE9D
:1030B000E01AF1EE10FA02DDB0EE600A01E0B0EEC7
:1030C000410A80ED090A7047B5EEC00AF1EE10FA28
:1030D00029D3F5EEC00AF1EE10FA24D3B5EEC01AEA
:1030E000F1EE10FA1FD300F10C0181EC030A80ED20
:1030F000060AD0ED0A1A81EE212A61EEA00AC0ED7F
:10310000070A80ED082A90F8381001290BD1B1EE9A
:10311000400A80ED060AB1EE600A80ED070AB1EEC2
:10312000420A80ED080A7047704700002DE9F0411F
:10313000164680461C46881B069FA04202DA0020E5
:10314000BDE8F081184601F08FFA054600201849C5
:1031500003E082198A5C2A54401CA042F9DB00215A
:103160000846221F03E02B5C401C194489B29042A0
:10317000F9DB2819CAB210F8033C9A4204D110F8BE
:10318000040CB0EB112F08D03A464E21404600F017
:1031900091FB284601F03AF9D1E73A4659214046D9
:1031A00000F088FB284601F031F90120C8E7000053
:1031B000040300207047000006490868401C0522EF
:1031C000B0FBF2F3086002FB130008B9012048606D
:1031D000FEF726B9CC00002030B593B03021684608
:1031E000FDF726F814210CA8FDF722F81848002551
:1031F000016841F080510160006800F0805011903A
:103200001448016841F4804101600068022400F420
:103210008040119001200090000401908001CDE9D0
:103220000640082008909020CDE9090404200B9066
:103230006846FEF779FA0CA90F2081E83100E00218
:103240000F90109002210CA8FEF784F913B030BD46
:1032500040380240007000400548016841F47001A8
:10326000016003494FF0006080390860704700003A
:1032700088ED00E00148FEF726BE00008401002032
:103280000148FEF720BE0000C40100200148FEF7FF
:103290001ABE0000040200200148FEF714BE000020
:1032A00044020020F0B50268254C264D264E274FDB
:1032B000274B4FF0804CA04209D0604507D0A84270
:1032C00005D0B04203D0B84201D0984204D122F0D8
:1032D000700E4A6842EA0E02A0421BD0604519D027
:1032E000A84217D0B04215D0B84213D0984211D09E
:1032F000184DA8420ED0184DA8420BD0174DA84229
:1033000008D0174DA84205D0164DA84202D0164D40
:10331000A84203D122F44075CA682A434D6922F0BD
:1033200080022A4302608A68C2620A688262A042FE
:1033300001D0984201D10969016301214161F0BDC9
:10334000000001400004004000080040000C004064
:103350000004014000400140004401400048014099
:1033600000180040001C00400020004010B501F093
:103370001F030121046A99408C430462016A9A4048
:103380001143016210BD10B5846842EA032224F49F
:103390007F440A432243826010BD826822F070029B
:1033A0000A4342F00701816070470000F0B5026AED
:1033B00022F001020262036A42688469124E24F01C
:1033C00073050C682C4323F002058B682B430D4DCD
:1033D000A84201D0B04205D123F00807CB683B4397
:1033E00023F00403A84201D0B04205D14D6922F474
:1033F000407215438A692A43426084614968416387
:103400000362F0BD0000014000040140F0B5026A13
:1034100022F010020262026A436884690D6824F493
:10342000E64444EA05248D6822F0200242EA0512AF
:103430000F4D104EA84201D0B04206D1CF6822F005
:10344000800242EA071222F04002A84201D0B042B4
:1034500007D14D6923F4406343EA85038D6943EA4C
:10346000850343608461496881630262F0BD0000A6
:103470000000014000040140F0B5026A22F48072AD
:103480000262026A4368C46922F4007224F0730580
:103490000C68124E2C438D6842EA05220E4DA8425C
:1034A00001D0B04206D1CF6822F4006242EA07227E
:1034B00022F48062A84201D0B04207D14D6923F4C2
:1034C000405343EA05138D6943EA05134360C46121
:1034D0004968C1630262F0BD000001400004014080
:1034E00030B5026A22F480520262046A4268C369FB
:1034F0000D6823F4E64343EA05238D6824F4005461
:1035000044EA0534084DA84202D0084DA84204D12F
:103510004D6922F4804242EA85124260C3614968E3
:103520000164046230BD000000000140000401405D
:1035300010B5036A046A24F001040462846924F06B
:10354000F00444EA021423F00A020A43846102628E
:1035500010BD10B5036A23F0100303628369046A87
:1035600023F4704343EA023224F0A00343EA01113A
:103570008261016210BD00000148FEF781BE0000BB
:10358000C402002010B5806B0021C185C184FEF704
:1035900076FE10BD70B5846B2068406994F83910D0
:1035A000C0F3C0100025212904D118B1E5842046BC
:1035B00000F062F82068406994F83A10C0F3801077
:1035C000222904D118B1E585204600F047F8E06BC8
:1035D00040F01000E0632046FEF751FE70BD10B5CC
:1035E0000146806B09680968C90513D40021C185AB
:1035F0000168CA6822F48072CA6001684A6922F0D0
:1036000001024A6101684A6922F040024A612021B0
:1036100080F83A10FEF7C2FF10BD10B5806BFEF7C0
:10362000D3FF10BD10B50146806B09680968C90554
:103630000CD40021C18401684A6922F080024A61E9
:103640000068C16841F04001C16010BDFEF7FEFF97
:1036500010BD10B5806BFEF7FAFF10BD0168CA6897
:1036600022F49072CA6001684A6922F001024A613C
:10367000202180F83A1070470168CA6822F0C00221
:10368000CA60202180F83910704700002DE9F84FFA
:103690008246406B8B469146006841685D4D501AEA
:1036A00081B2698004290DD300205B4E0A1F07E018
:1036B000335CAA2B03D133185B78FF2B04D0401C5A
:1036C0009042F5DBBDE8F88F87B230448478A02CB7
:1036D0000ED0A12C0CD0A22C1AD04FF00208A32C93
:1036E00031D0A42C3DD0A52C4CD0B62C53D081E0A9
:1036F00007233A4650460094FFF718FD10B10A2000
:10370000FDF772FA44482146403800F0E9F871E0CC
:103710000D233A4650460094FFF708FD88B3F01990
:10372000B0F80310E980C18829814179FF2902D1CD
:10373000E9884942E980007AFF2802D1288940427D
:10374000288101201CE00F233A4650460094FFF7E1
:10375000EDFCB0B1F01950F8031F69614068A86131
:1037600046E00D233A4650460094FFF7DFFC40B197
:10377000F019B0F80310A980D0F80500E861032023
:10378000287037E007233A4650460094FFF7CEFCF6
:1037900001F07CF82EE00D233A4650460094FFF7E6
:1037A000C5FC38B3F01930F8031F0AB24FF47A7130
:1037B00092FBF1F200EE102A174AB8EEC00A20324E
:1037C00082ED000A43881BB293FBF1F300EE103A3E
:1037D000B8EEC00A82ED010A8088ADF8000000B2A0
:1037E00090FBF1F000EE100AB8EEC00A82ED020A7A
:1037F00085F8008008484038406B0068016821F077
:10380000010101604A4659465046FEF77BFE002002
:10381000688057E7000000200403002010B590F8EE
:103820003A10222901D0022010BD8168B1F5805FD5
:1038300011D00169002901681FD0496801F07F0398
:10384000816A4A1C82620B70C18D491E0904090CF1
:10385000C18518D02BE00269816A002A026852688B
:1038600005D0D2B20A80816A491C8162ECE7C2F3BA
:1038700008020A80816A891CF7E74A68816A4B1C42
:1038800083620A70E0E70168CA6822F02002CA6019
:103890000168CA6822F48072CA6001684A6922F02D
:1038A00001024A61202180F83A10FEF777FE0020DD
:1038B00010BD000030B4094B4FF6AA741C809A70FA
:1038C000D97002F2A91240F60A541144DC809980A2
:1038D00030BC08221946FEF779BE000034000020F3
:1038E0002DE9F0413A4A4FF6AA733A4E138091708F
:1038F00040F60A53A2F80D3006F1240404F1240323
:1039000003F12405A02902D0A12931D04CE096ED85
:10391000050A4FF47A75BDEEC00A10EE101A11FBBD
:1039200005F194ED050A0EB2BDEEC00A10EE101AB4
:1039300011FB05F193ED050A0DB24FF47A73BDEE5C
:10394000C00A10EE101A11FB03F10FB25FF0010173
:103950004FEAC10C46FA0CF35418E37045FA0CF325
:10396000637147FA0CF3E3716372491EF0D51BE0F3
:10397000B6F90EC0B4F90E70B3F90E60B5F90E5079
:103980000121CC004CFA04FE531883F803E047FAF7
:1039900004FE83F805E046FA04FE45FA04F483F8D1
:1039A00007E05C72491EECD59178002301F2A91161
:1039B000D4185B1CE478082B214489B2F8DBA2F808
:1039C0000B10BDE8F0410F220149FEF7FFBD0000DA
:1039D000200400203C0000202DE9F041044600684E
:1039E0000169E26821F44051114301612169A06835
:1039F000E26908436169114308432168CA6849F2D2
:103A00000C639A430243CA6020684169A26921F4A9
:103A1000407111434161E069192764253226B0F5F0
:103A2000004F354A354920684FF0000806D08842DB
:103A300001D0904236D1FDF737FE35E0884201D003
:103A4000904202D1FDF730FE01E0FDF71DFE6168F6
:103A50004A18A0FB070148EB0803FCF7B1FB01463D
:103A6000B0FBF5F00201B1FBF5F06FF0180358431D
:103A700001EB800006EBC000B0FBF5F000F0F800B1
:103A800002EB4002B1FBF5F0584301EB800006EB7E
:103A9000C000B0FBF5F000F007002168104488601A
:103AA000BDE8F081FDF7F0FD61688B0F8A00A0FB97
:103AB0000701FCF785FB0146B0FBF5F06FF018023B
:103AC000504301EB800006EB0010B0FBF5F000F076
:103AD000F002B1FBF5F002EB0012B1FBF5F06FF074
:103AE0001803584301EB800006EB0010B0FBF5F023
:103AF00000F00F00D1E70000001401400010014069
:103B000090F83910212901D0022070478168B1F561
:103B1000805F016A0BD04A1C02620268097851601A
:103B2000C18C491E0904090CC1840ED017E0098814
:103B30000268C1F30801516001690029016A02D0DD
:103B4000491C0162ECE7891CFBE70168CA6822F0A6
:103B50008002CA600068C16841F04001C160002075
:103B60007047FEE70907090E002804DB00F1E0209A
:103B700080F80014704700F00F0000F1E02080F89A
:103B8000141D7047000000002DE9F0412DED020BDF
:103B90009FED3D0B2DED028B9FED3D8BDDE902543A
:103BA000C4F30A50A0F2FF36142E37DA002E18DACA
:103BB00053EC102B9DED020B51EC100BFCF750FB5E
:103BC00053EC182BFCF700FE57D2002CA4BF0024A6
:103BD000254652DA24F00040284318BF2E4C4CD022
:103BE0001AE02E4820FA06F704EA070028431FD0FF
:103BF00053EC102B9DED020B51EC100BFCF730FB3E
:103C000053EC182BFCF7E0FD37D2002C03DA4FF40D
:103C10008010F0400444BC4300252EE0332E07DC26
:103C2000A6F114004FF0FF3121FA00F73D4206D112
:103C30009DED020BBDEC028B02B0BDE8F08153ECB0
:103C4000102B9DED020B51EC100BFCF7ADFB53EC70
:103C5000182BFCF7B9FD10D2002C0DDA142E08BF7A
:103C6000641C09D0C6F13400012101FA00F0284497
:103C7000A84238BF641C0546BD43CDE902549DED02
:103C8000020BD7E7000000009C7500883CE4377EFB
:103C900000000000000000000000F0BFFFFF0F0068
:103CA00002E008C8121F08C1002AFAD17047704705
:103CB000002001E001C1121F002AFBD17047000063
:103CC0002DE9F041864F4FF4B4712DED068B84B091
:103CD000F0EE608AB0EE409AF88910FB01F000EE39
:103CE000100AD7ED000A07F12405B8EEC00A80EEED
:103CF000201A87ED041AE88910FB01F000EE100A83
:103D0000D5ED000A05F12406B8EEC00A80EE201AAF
:103D100085ED041AF08910FB01F000EE100AD6EDD3
:103D2000000A05F14808B8EEC00A4FF4B47280EEFC
:103D3000201A86ED041AB8F80E1011FB02F100EEFD
:103D4000101AD8ED000A0322B8EEC00A6946654889
:103D500080EE201A88ED041AFCF775FA00287CD052
:103D6000604C04F10C0094EC030AFFF7ADF994ECFD
:103D7000030A04F1C000FFF7A7F994EC030A04F169
:103D80004800FFF7A1F994EC030A04F1840000BF96
:103D9000FFF79AF9534C97ED040A0C34204684ED52
:103DA000000A84ED0D9AFFF7D9F894ED020A97ED19
:103DB000011AC0EE010ADFED4C9A9FED4C8A484C87
:103DC000B0EE480A3C3C00EEA90A84ED080A00F077
:103DD00005FB444F84ED080A95ED040A4837384640
:103DE00087ED000AC7ED0D8AFFF7B8F897ED020AD4
:103DF00095ED011AC0EE010AB0EE480A00EEA90ADC
:103E000084ED090A00F0EAFA84ED090A96ED040A45
:103E100007F13C05284685ED000AC5ED0D8AFFF740
:103E20009DF895ED020A96ED011AC0EE010AB0EE7A
:103E3000480A00EEA90A84ED0A0A00F0CFFA84EDE0
:103E40000A0A98ED040A3C35464685ED000A85EDE0
:103E50000D9A2846FFF782F800E014E095ED020A7B
:103E600096ED011AC0EE010AB0EE480A00EEA90A6A
:103E700084ED0B0A00F0B2FA84ED0B0A04B0BDEC3D
:103E8000068BBDE8F0819FED1A8ADFED1A9A15487E
:103E9000B0EE481AF1EE000AB0EE690A0C30FFF7F6
:103EA00013F99FED15AA0F48F1EE000AB0EE4A1A79
:103EB000B0EE080AC030FFF707F90A48B0EE481A1A
:103EC000F1EE000AB0EE690A4830FFF7FDF8054848
:103ED000B0EE4A1AF1EE000AB0EE080A843057E755
:103EE0003C00002024030020008054450000C8420C
:103EF0000AD7A33B666626406F12833B2DE9F05F2D
:103F00002DED0C8BB0EE608AF0EE408A9FEDDA1A50
:103F1000F1EE000A9FEDD90AD948FFF7D5F89FEDD9
:103F2000D91AD748F1EE000AB0EE080AB430FFF70C
:103F3000CBF89FEDD11AF1EE000A9FEDD00AD048E0
:103F40003C30FFF7C1F89FEDCF1ACD48F1EE000AE3
:103F5000B0EE080A7830FFF7B7F8DFF82CB3584610
:103F60009BED000AB0F90C00BDEEC00A10EE101A6D
:103F700000F0A0F9584600F1240980ED050A99EDFA
:103F8000000A2430BDEEC00AB0F90C0010EE101A81
:103F900000F090F9484600F1240A80ED050A9AEDF8
:103FA000000A2430BDEEC00AB0F90C0010EE101A61
:103FB00000F080F9504600F1240880ED050A98EDE4
:103FC000000A2430BDEEC00AB0F90C0010EE101A41
:103FD00000F070F94046AA4C80ED050A6C3804F1F7
:103FE0003C05D0ED050A2430C4ED000AD0ED050AE9
:103FF0002430C5ED000AD0ED050A04F1780604F17D
:10400000B407C6ED000A87ED000AC4ED0D8A85ED00
:104010000D8A86ED0D8AC7ED0D8A2046FEF79EFFBC
:104020002846FEF79BFF3046FEF798FF3846FEF71E
:1040300095FF9FED969B9FED97CB9FED98AB9FEDE6
:1040400099BBF5EEC08A18EE900AF1EE10FA2ADB61
:10405000FCF7C5FA53EC192BFCF7A3F953EC1C2B16
:10406000FCF7A5F953EC1A2BFCF7FAF841EC1D0B01
:10407000A068FCF7B4FA53EC1D2BFCF7F1F8FCF741
:10408000C1FAA06018EE900AFCF7A9FA53EC192BBC
:10409000FCF787F953EC1B2BFCF789F953EC1A2B2F
:1040A000FCF7DEF829E0FCF79AFA53EC192BFCF741
:1040B000D7F853EC1C2BFCF77AF953EC1A2BFCF7CE
:1040C00070F941EC1D0BA068FCF789FA53EC1D2B2D
:1040D000FCF7C6F8FCF796FAA06018EE900AFCF719
:1040E0007EFA53EC192BFCF7BBF853EC1B2BFCF7B7
:1040F0005EF953EC1A2BFCF754F941EC1D0BB86830
:10410000FCF76DFA53EC1D2BFCF7AAF8FCF77AFAD2
:10411000B5EEC08AB860F1EE10FA18EE100A2ADB8C
:10412000FCF75DFA53EC192BFCF73BF953EC1C2B15
:10413000FCF73DF953EC1A2BFCF792F841EC1C0B01
:10414000A868FCF74CFA53EC1C2BFCF789F8FCF739
:1041500059FAA86018EE100AFCF741FA53EC192B33
:10416000FCF71FF953EC1B2BFCF721F953EC1A2B2E
:10417000FCF776F829E0FCF732FA53EC192BFCF740
:104180006FF853EC1C2BFCF712F953EC1A2BFCF7CD
:1041900008F941EC1C0BA868FCF721FA53EC1C2B26
:1041A000FCF75EF8FCF72EFAA86018EE100AFCF790
:1041B00016FA53EC192BFCF753F853EC1B2BFCF7B6
:1041C000F6F853EC1A2BFCF7ECF841EC180BB0683E
:1041D000FCF705FA53EC182BFCF742F8FCF712FA3F
:1041E000B06094ED020ADBED010A9FED301A264A19
:1041F000C0EE201ADFED2E0A3C3AB0EE600A01EE66
:10420000810A82ED080A00F0E9F882ED080A95EDCE
:10421000020A99ED012AC0EE021AB0EE600A01EE20
:10422000810A82ED090A00F0D9F882ED090A96EDBB
:10423000020A9AED012AC0EE021AB0EE600A01EEFF
:10424000810A82ED0A0A00F0C9F882ED0A0A97EDA8
:10425000020A98ED012AC0EE021AB0EE600A01EEE1
:10426000810A82ED0B0A00F0B9F882ED0B0ABDEC71
:104270000C8BBDE8F09F00000AD7A33B6666264082
:10428000300300206F12833B3C0000207B14AE47BC
:10429000E17AB43FCDCCCCCCCCCCEC3F7B14AE4758
:1042A000E17A843F333333333333EB3F008054457B
:1042B0000000C84210B504462DED028B0846FCF7FD
:1042C00057F941EC100B53EC102B9FED190B51ECEF
:1042D000100BFCF7DEF841EC180B2046FCF748F910
:1042E00053EC182BFCF763F89FED131B53EC112BC9
:1042F000FCF75DF89FED121B53EC112BFCF757F800
:10430000FCF780F9FCF76BF99FED0F1B53EC112BB9
:10431000FCF74DF89FED0E1B53EC112BFCF747F803
:10432000FCF770F9BDEC028B00EE100A10BD000026
:10433000000000000000F03F0000000000006940A5
:104340000000000000004E40AE0507C5A05DCF3F55
:10435000111111111111913F10B51E4C207868B147
:1043600001280FD0022826D0032831D194ED070A66
:10437000B4F90400BDE8104000F034BABDE81040C4
:1043800000F084BAB4F906009FED131A00EE100A8B
:10439000F8EEC00A80EE810A84ED030AB4F9080041
:1043A00000EE900AF8EEE01AC1EE810AC4ED040AAC
:1043B000FFF7A4FD05E0D4ED060A94ED050AFFF72A
:1043C0007FFC203494EC040ABDE8104000F082B970
:1043D00010BD00000000002000401C4610EE100A36
:1043E0000649884202DB9FED060A704710EE100A6C
:1043F00004498842F9D99FED040A704700C05A4524
:1044000000B05A4500C05AC500B05AC510B50028C2
:1044100021D0114B0022001F196803E0814203D80C
:104420000A4649680029F9D152B11368841A9C429E
:1044300004D1006818441060104602E0506000E0AB
:10444000186039B102680B1A934203D10B681A4401
:1044500002604968416010BDE80000202DED028B2C
:1044600084B0FCF7E5FFFEF7B7FEFEF727FB7448C4
:104470000024016841F4001101600068224600F444
:104480000010009021460B20FDF732F80B20FDF7BD
:1044900021F8002211462F20FDF72AF82F20FDF7E2
:1044A00019F86948674901606849C0E901144FF487
:1044B0008041C0E9034144618461C4610462FCF746
:1044C0008DFCFEF76DFBFEF79BFBFEF7E5FBFEF7B1
:1044D00013FCFEF741FC5F485D4901604FF4E13198
:1044E000C0E901140C21C460C0E904418461C461C5
:1044F000FDF750FF57480094403801940294564904
:10450000039401602321C0E9011442F20F71C0E954
:1045100003148461FDF714FB4FF4805000904D4864
:1045200069464038FDF752FB4748FEF74DFC302006
:10453000FEF798FC4FF4FA70FCF756FB4248002156
:104540009430FDF733FE404804219430FDF72EFEF1
:104550003D4808219430FDF729FE3B480C2194305A
:10456000FDF724FE3B491D2240313A48FDF7CAFFC2
:10457000354804215430FDF78BFC3648042180383F
:10458000FDF786FC30480421D430FDF781FC31482A
:104590000421C038FDF77CFC30489FED318A00F1E2
:1045A0001803D0ED012A90ED022A2A48002293EC4C
:1045B000030A0121F0EE481A6C30FEF719FD274876
:1045C0000022243000F11803D0ED012A90ED022AD8
:1045D0002048012193EC030AF0EE481AA830FEF7B8
:1045E00007FD1E480022483000F11803D0ED012AD3
:1045F00090ED022A1748012193EC030AF0EE481AC5
:10460000E430FEF7F5FC154800226C3000F1180389
:10461000D0ED012A90ED022A012193EC030AF0EE7D
:10462000481A1048FEF7E4FC0A482C3044638463BF
:10463000C46308491D2240310648FFF727F8F8E710
:104640003038024000540040F0000020A0860100F5
:1046500000500040C4020020004001403C00002007
:104660000AD7A33BE4030020F0B50B30154D20F032
:1046700007010024144A0FE003688B420BD38B42DE
:1046800005D95E1A43184768C3E9006700E043682C
:10469000136002C004E0021D10680028ECD120461F
:1046A000002802D1286808B10020F0BD064A07485A
:1046B0001060074A121A22F00702C0E90024012004
:1046C0002860D7E7EC000020E8000020F404002078
:1046D000F006002070B53F4CB5EEC00A2DED048BFE
:1046E000B0EE618AF0EE418ADFED3C9AB0EE609A5E
:1046F000F1EE10FA384D216807DBBCEEC00A10EE6F
:10470000100A80B24863002207E030EE290ABDEEAD
:10471000C00A10EE102A4A63012280212846FCF7C5
:1047200051FBB5EEC09A4FF40071F1EE10FA08DBC0
:10473000BCEEC90A226810EE100A80B29063002213
:1047400008E039EE290A2268BDEEC00A10EE100A10
:10475000906301222846FCF735FBF5EEC08A204B1A
:10476000F1EE10FA4FF4004108DBBCEEE80A2268D3
:1047700010EE100A80B2D063002208E038EEA90AD9
:104780002268BDEEC00A10EE100AD063012218465E
:10479000FCF718FBB5EEC08A4FF40061F1EE10FA99
:1047A00008DBBCEEC80A226810EE100A80B2106462
:1047B000002208E038EE290A2268BDEEC00A10EE99
:1047C000100A10640122BDEC048B2846BDE870403D
:1047D000FCF7F8BA840100200008024000F06045B0
:1047E0000000024010B504002DED048BB0EE408AAD
:1047F00039D018EE100AFBF7F2FE9FED1E1B53ECAA
:10480000112BFBF746FEFBF7FDFE00EE100ADFED75
:104810001B0A20EE200A10EE100AFBF7E0FE41EC26
:10482000190B2046FBF7A4FE9FED151B53EC112B33
:10483000FBF7BDFD53EC192BFBF72BFEFBF7E2FE5C
:1048400000EE100A28EE001A68EE400AB0EE410AA7
:10485000FFF736FA0C4890EC040ABDEC048BBDE877
:104860001040FFF737BFBDEC048BBDE8104000F0EF
:104870000DB800002B8716D9CEF7A33F00003443B4
:10488000A7E8482EFF2109402000002070B50C4DFC
:104890009FED0C0A00242C70F0EE400AFFF72EFB6F
:1048A000203595EC040AFFF715FF05F11C00C481C3
:1048B0002430C4812430C4812430C48170BD000000
:1048C0000000002000000000000610160006101670
:1048D00000000000000000000102030406070809B0
:1048E0000000000001020304084900080000002045
:1048F000F0000000A03C0008F8490008F00000208B
:10490000000A0000B03C00080000000000000000A9
:104910000000000000000000000000000000000097
:10492000000000000000003F000000000000000048
:104930000000000000000000000000000000000077
:10494000000000000060BA44A4709D3FA4709DBFA9
:104950000000000000000000000000000000000057
:1049600000000000000000000060BA44A4709D3FF9
:10497000A4709DBF000000000000000000000000C7
:104980000000000000000000000000000080BB44A8
:10499000A4709D3FA4709DBF0000000000000000B7
:1049A0000000000000000000000000000000000007
:1049B0000080BB44A4709D3FA4709DBF0000000018
:1049C00000000000000000000000000000000000E7
:1049D00000000000000000000000000001000000D6
:1049E00010000000000000000024F400000000009F
:0849F0000000000000000000BF
:040000050800018965
:00000001FF
